:020000040800F2
:1000000070070020CD010008B30D0008930D000813
:10001000B10D0008D3020008F70E00080000000030
:10002000000000000000000000000000910E000829
:10003000D502000800000000B50D0008930E00086E
:10004000E7010008E7010008E7010008E7010008F0
:10005000E7010008E7010008E7010008E7010008E0
:10006000E7010008E7010008E7010008E7010008D0
:10007000E7010008E7010008E7010008E7010008C0
:10008000E7010008E7010008E7010008E7010008B0
:10009000E7010008E7010008E7010008E7010008A0
:1000A000E7010008E7010008E7010008E701000890
:1000B000E7010008E7010008E7010008E701000880
:1000C000E7010008E7010008E7010008E701000870
:1000D000E7010008E7010008E7010008E701000860
:1000E000E7010008E7010008E7010008E701000850
:1000F000E7010008E7010008E7010008E701000840
:10010000E7010008E7010008E7010008E70100082F
:10011000E7010008E7010008E7010008E70100081F
:10012000E7010008E7010008E7010008E70100080F
:1001300000F002F800F03AF80AA090E8000C8244BF
:100140008344AAF10107DA4501D100F02FF8AFF29C
:10015000090EBAE80F0013F0010F18BFFB1A43F0A5
:1001600001031847B40F0000D40F0000103A24BF59
:1001700078C878C1FAD8520724BF30C830C144BF0C
:1001800004680C607047000000230024002500264E
:10019000103A28BF78C1FBD8520728BF30C148BFEA
:1001A0000B6070471FB51FBD10B510BD00F058F8AB
:1001B0001146FFF7F7FF00F0AFFE00F076F803B44A
:1001C000FFF7F2FF03BC00F07DF80000094880470C
:1001D00009480047FEE7FEE7FEE7FEE7FEE7FEE729
:1001E000FEE7FEE7FEE7FEE704480549054A064B41
:1001F00070470000F50E0008310100087001002072
:100200007007002070030020700300204FF00002F0
:1002100000B5134694469646203922BFA0E80C50FC
:10022000A0E80C50B1F12001BFF4F7AF090728BFD7
:10023000A0E80C5048BF0CC05DF804EB890028BF53
:1002400040F8042B08BF704748BF20F8022B11F07C
:10025000804F18BF00F8012B7047704770477047F8
:10026000754600F02BF8AE4605006946534620F06F
:100270000700854618B020B5FFF7B6FFBDE820405F
:100280004FF000064FF000074FF000084FF0000B52
:1002900021F00701AC46ACE8C009ACE8C009ACE805
:1002A000C009ACE8C0098D46704710B50446AFF3ED
:1002B00000802046BDE81040FFF781BF004870472E
:1002C0001001002001491820ABBEFEE72600020005
:1002D0007047FEE77047000070B5044600F010F963
:1002E0000546601C02D004480078044400F008F978
:1002F000401BA042FAD370BD000000202DE9F84F4A
:10030000DFF8C8910024A9F1040B23460F2709F157
:10031000040AABF1040ED1E00125A54006EA05026E
:10032000AA4276D1DFF8A8C14E68A6EB0C08664554
:100330002BD00DDC032E34D005DC36B3012E19D0C2
:10034000022E2FD11BE0112E16D0122E2AD119E029
:10035000B8F5881F19D006DCB8F5803F15D0B8F580
:10036000801F1FD111E0B8F5001F0ED0B8F5041F93
:1003700018D10AE0CB6815E0CB681B1D12E0CB68F2
:1003800008330FE0CB680C330CE08B682BB1012BEA
:100390004FF0080303D0456104E0042302E0056147
:1003A00000E00023FF2A01D8064601E000F1040620
:1003B0004FEA840501D9A5F12005D6F8008007FA97
:1003C00005FC28EA0C0803FA05F548EA0508C6F812
:1003D00000804D68ED0070D53E4DAE6946F00106D7
:1003E000AE61AD6924F0030605F0010500953A4DB4
:1003F00006EB050CDCF80850A607360F07FA06F8DE
:1004000025EA0805DFF8D480404503D14FF0000805
:1004100025E052E0DFF8C880404502D14FF00108E6
:100420001DE0DFF8C080404502D14FF0020816E021
:10043000DFF8B480404502D14FF003080FE0DFF849
:10044000AC80404502D14FF0040808E0DFF8A080FE
:10045000404502D14FF0050801E04FF0060808FAC8
:1004600006F848EA0508CCF808804D68D9F800601D
:10047000ED024D4601D5164300E096432E604D68CF
:10048000DAF80060AD02554601D5164300E0964308
:100490002E604D68DBF80060AD035D4601D5164364
:1004A00000E096432E604D68DEF80060ED0375466F
:1004B00001D5164300E096432E60641C0A68164678
:1004C000E2407FF429AFBDE8F88F00000804014046
:1004D000000011100010024000000140000801401F
:1004E000000C0140001001400014014000180140C0
:1004F000001C01400AB1016170470904FBE70000DC
:1005000001488068704700000000002002488168B0
:10051000027811448160704700000020074810B540
:10052000016841F010010160032000F05FF80F2026
:1005300000F006F800F024F8002010BD0020024072
:1005400070B50D4D04464FF47A712878B1FBF0F088
:100550000A490968B1FBF0F000F007FC48B9102C1B
:1005600007D200222146501E00F020F800206C60C7
:1005700070BD012070BD0000000000200C000020B4
:10058000094808B5816941F001018161816901F083
:1005900001010091C16941F08051C161C06900F061
:1005A0008050009008BD000000100240F0B40E4BD7
:1005B0001B680C46C3F30223C3F10705042D00D9C1
:1005C0000425191D072901D2002300E0DB1E0126A6
:1005D00006FA05F1491E214099409E40761E1640BC
:1005E0003143F0BC00F088BC0CED00E0064900F09F
:1005F000070208684FF6FF03184040EA0220034A4A
:1006000010430860704700000CED00E00000FA05A0
:100610002DE9F0470F46050061D0434E306800F0E9
:100620000700B84209D2306820F007003843306034
:10063000306800F00700B84251D128683B4C810770
:1006400012D5400703D5606840F4E0606060287808
:10065000000703D5606840F4605060606068A96876
:1006600020F0F000084360602878C00728D0686850
:10067000012810D02168022810D0890700292EDA1D
:10068000616821F0030101436160FFF739FF804693
:1006900041F288390DE021688903EFE78901EDE730
:1006A000FFF72EFFA0EB0801494502D90320BDE862
:1006B000F0876068696800F00C00B0EB810FEFD143
:1006C000306800F00700B8420BD9306820F007000E
:1006D00038433060306800F00700B84201D0012094
:1006E000E5E72878400705D56068E96820F4E06010
:1006F000084360602878000706D56068296920F4FF
:10070000605040EAC100606000F018F86168084A73
:10071000C1F30311515CC8400649086006480068EF
:10072000FFF70EFF0020C2E7002002400010024049
:10073000051100080C000020040000200E4A51683A
:100740000E4801F00C03042B11D0082B0FD10C48DC
:10075000C1F38343C903C05C0AD55168084AC1F399
:100760004041921E515C054A5043B0FBF1F0704786
:1007700004494843704700000010024000127A000C
:10078000F510000800093D002DE9F84F040070D075
:100790002078C04DC00749D06868C0F381000128A7
:1007A00007D06868C0F38100022809D16868C003D7
:1007B00006D52868800339D560680028E7D035E081
:1007C0006068B0F5803F0BD010B1B0F5A02F11D00C
:1007D000286820F480302860286820F4802002E017
:1007E000286840F480302860606890B1FFF788FE88
:1007F00006460AE0286840F480202860F0E700BF41
:10080000FFF77EFE801B642873D828688003F7D525
:100810000CE0FFF775FE064605E000BFFFF770FE2F
:10082000801B6428F0D828688003F7D420789A4E7B
:1008300080074FF001094FF0000839D5686810F0C3
:100840000C0F07D06868C0F38100022809D16868DE
:10085000C00306D42868800714D52069012808D170
:1008600010E02069B0B1C6F80090FFF749FE0746D6
:1008700005E00AE1FFF744FEC01B0228C4D828683F
:100880008007F7D52868616920F0F80040EAC100C8
:1008900028600DE0C6F80080FFF732FE074604E04E
:1008A000FFF72EFEC01B022823D828688007F7D444
:1008B000207800072CD57948A169D9B1C0F80090FB
:1008C000FFF71EFE074604E0FFF71AFEC01B0228D2
:1008D0000FD8686A8007F7D571484FF4FA5100685D
:1008E000B0FBF1F0009000BF0098411E0091FAD2D9
:1008F0000EE080E0C0F80080FFF702FE074604E04B
:10090000FFF7FEFDC01B022875D8686A8007F7D480
:100910002078400760D5E8690027C00008D4E8695E
:1009200040F08050E861E869012700F080500090B5
:100930005C480168C90513D40168834641F480719D
:100940000160FFF7DDFD824606E000BFFFF7D8FD3E
:10095000A0EB0A0064284ED8DBF80000C005F5D5EE
:10096000E06801280AD008B1052813D0286A20F0D1
:1009700001002862286A20F0040002E0286A40F0A2
:1009800001002862E06841F2883B98B1FFF7B8FDAA
:1009900082460BE0286A40F004002862EEE700BFC0
:1009A000FFF7AEFDA0EB0A0159455AD8286A800727
:1009B000F6D50CE0FFF7A4FD824605E0FFF7A0FDA9
:1009C000A0EB0A0159454CD8286A8007F6D41FB11C
:1009D000E86920F08050E861E06988B36968C1F394
:1009E0008101022944D00228C6F8608004D0FFF7B4
:1009F00087FD044638E034E0FFF782FD074604E057
:100A0000FFF77EFDC01B02282BD828688001F7D491
:100A1000206AB0F5803F05D16868A16820F40030F5
:100A200008436860D4E908010843696821F4741137
:100A300008436860C6F86090FFF762FD044606E070
:100A400025E000BFFFF75CFD001B022809D82868DD
:100A50008001F7D51BE000BFFFF752FD001B022805
:100A600002D90320BDE8F88F28688001F4D40EE095
:100A70000128F7D06868226A00F48031914204D1DD
:100A8000616A00F47010884201D00120EAE700207A
:100A9000E8E70000001002400000424280044242A9
:100AA0000C0000200070004070B5040009D0606A9E
:100AB000002540B125616561A56294F8510040B1FF
:100AC0000CE0012070BD6068B0F5827FF4D0E56174
:100AD000F2E784F85050204600F040F8022084F8F5
:100AE00051002068016821F040010160A08821893F
:100AF00000F4827001F404410843A18901F400610B
:100B00000843217C01F002010843217D01F001012D
:100B10000843218B01F400710843217F01F0380163
:100B2000084394F8201001F080010843218D01F45E
:100B30000051084321680860A069042101EA1040BF
:100B4000216848602068C16921F40061C161656560
:100B5000012084F85100002070BD00002DE9F04113
:100B600086B0002400940194029403940068204904
:100B700088423AD11F48C16941F48041C161C169CD
:100B800001F480410491816941F00801816180692B
:100B9000012600F0080004904FF48050CDE90006D3
:100BA0000325DFF85480CDE9026569464046FFF72A
:100BB000A5FB70030227CDE90007CDE90265694670
:100BC0004046FFF79BFBF003CDE90007694640462E
:100BD000CDE90245FFF792FBB003CDE90004694679
:100BE0004046CDE90245FFF789FB06B0BDE8F0813C
:100BF0000038004000100240000C01402DE9F84F81
:100C0000044690F850000026984615468A4601286A
:100C10000CD0012784F85070FFF772FC814694F8DD
:100C20005100B346012804D002269AE00220BDE814
:100C3000F88FBAF1000F6FD0002D6DD0032084F82B
:100C40005100C4F854B0C4F830A0A586E586C4F8B5
:100C500038B0A4F83CB0A4F83EB0C4F844B0C4F82E
:100C600040B0A068B0F5004F09D12068016821F0BC
:100C7000400101602068016841F480410160206802
:100C80000168490603D4016841F040010160E06851
:100C9000B0F5006F606803D058B3012D29D049E04A
:100CA00008B1012D1FD1206B21680088C86006E0C3
:100CB00020688168890709D5216B0988C160206B8C
:100CC000801C2063E08E401EE0860CE0FFF718FCDD
:100CD000A0EB0901414503D3B8F1FF3F03D006E083
:100CE000B8F1000F03D0E08E0028E1D125E0032603
:100CF00035E0206B21680078087306E02068816881
:100D000089070AD5216B09780173206B401C206389
:100D1000E08E401EE0860DE01FE0FFF7F1FBA0EB48
:100D20000901414503D3B8F1FF3F03D0DFE7B8F134
:100D3000000FDCD0E08E0028E0D14A464146204634
:100D400000F039F808B120206065A06818B9206863
:100D5000C16880680090606D08B1012601E084F8E8
:100D6000517084F850B0304661E710B5401EB0F1C4
:100D7000807F01D3012010BD4FF0E02460610F217E
:100D8000601700F0B9F80020A06107202061002062
:100D900010BDFEE7054808B5816941F01001816189
:100DA000806900F01000009008BD000000100240B3
:100DB000FEE7FEE7704738B50B4600920446002276
:100DC000802100F009F8002804D0606D40F0200078
:100DD0006065032038BD00002DE9F8431E469146AA
:100DE00088460446089DFFF78BFB401B351AFFF72A
:100DF00087FB074625480068C0F3CB30684338E0DE
:100E0000701C37D0FFF77CFBC01BA84203D215B182
:100E1000009860B32CE02068416821F0E001416057
:100E20006068B0F5827F0BD1A068B0F5004F02D0AA
:100E3000B0F5806F04D12068016821F040010160A5
:100E4000A06AB0F5005F09D12068016821F4005163
:100E500001602068016841F400510160012084F8BC
:100E60005100002084F850000320BDE8F8830025DD
:100E7000401E00902068816838EA010004D00021FB
:100E80004945BDD10020F0E70121F9E70C00002021
:100E90007047FFF73BBB30B58FB028216846FFF79E
:100EA000B5F914210AA8FFF7B1F901210804CDE929
:100EB00000100024029402250491CDE907504FF45C
:100EC000E01009906846FFF75FFC08B172B6FEE7D4
:100ED0000F20CDE90A054FF48060CDE90C400221D6
:100EE0000AA80E94FFF794FB002801D072B6FEE723
:100EF0000FB030BD7047FEE70907090E002804DB7C
:100F000000F1E02080F80014704700F00F0000F1BD
:100F1000E02080F8141D704708B5FFF7FFFAFFF7CF
:100F2000BAFF2948FFF71AFE00F072F8274D284E45
:100F3000284FDFF8A480DFF8A4904FF4FA7400BFC4
:100F4000FFF728FF2888ADF80000A8788DF8020088
:100F5000009800F045F82046FFF7BEF93088ADF85C
:100F60000000B0788DF80200009800F039F82046B3
:100F7000FFF7B2F93888ADF80000B8788DF80200B4
:100F8000009800F02DF82046FFF7A6F9B8F80010F9
:100F9000ADF8001098F802008DF80200009800F0FB
:100FA0001FF82046FFF798F9B9F80010ADF80010C7
:100FB00099F802008DF80200009800F011F8204620
:100FC000FFF78AF9BCE70000B8000020E410000831
:100FD000E7100008EA100008ED100008F010000803
:100FE00070B5054600242946204600F03DF8641CF3
:100FF000E4B2072CF7D3BDE8704004494FF47A738C
:10100000A82201F1A800FFF7F9BD000010000020A0
:1010100070B5134C1148002520604FF48270C4E96C
:1010200001050120E560C4E904504002A0611020E0
:10103000C4E9070507206562C4E90A502046FFF7A6
:1010400033FD2068016841F0400101602A46BDE897
:1010500070404FF480510348FFF74CBA003800400D
:10106000B8000020000C014030B51D4C002300EBFF
:101070004000C1F30725012204EBC004C3F10700BF
:1010800002FA00F0054201D0FC2000E0C020E0544C
:101090005B1C9BB2082BF1D30820CBB2C0F10F052B
:1010A00002FA05F52B4201D0FC2500E0C0252554AD
:1010B000401C80B21028F1D31020C1F3074100BFBB
:1010C000C0F1170302FA03F3194201D0FC2300E038
:1010D000C0232354401C80B21828F1D330BD000037
:1010E00010000020FF000000FF000000FFFFFF00D5
:1010F0004169E1010202030405060708090A0B0C15
:101100000D0E0F101000000000000000000102038F
:10111000040607080900000038110008000000203C
:10112000100000006C0100084811000810000020A9
:1011300060070000880100080100000010000000A6
:08114000000000000024F4008F
:0400000508000131BD
:00000001FF
